{
  "contractName": "FlightDataRecorder",
  "abi": [
    {
      "anonymous": false,
      "inputs": [
        {
          "indexed": false,
          "internalType": "uint256",
          "name": "flightId",
          "type": "uint256"
        },
        {
          "indexed": false,
          "internalType": "uint256",
          "name": "timestamp",
          "type": "uint256"
        }
      ],
      "name": "FlightDataRecorded",
      "type": "event"
    },
    {
      "inputs": [],
      "name": "flightDataCount",
      "outputs": [
        {
          "internalType": "uint256",
          "name": "",
          "type": "uint256"
        }
      ],
      "stateMutability": "view",
      "type": "function",
      "constant": true
    },
    {
      "inputs": [
        {
          "internalType": "uint256",
          "name": "",
          "type": "uint256"
        },
        {
          "internalType": "uint256",
          "name": "",
          "type": "uint256"
        }
      ],
      "name": "flightDataRecords",
      "outputs": [
        {
          "internalType": "uint256",
          "name": "flightId",
          "type": "uint256"
        },
        {
          "internalType": "string",
          "name": "pilotId",
          "type": "string"
        },
        {
          "internalType": "uint256",
          "name": "passengerCount",
          "type": "uint256"
        },
        {
          "internalType": "uint256",
          "name": "grossWeight",
          "type": "uint256"
        },
        {
          "internalType": "uint256",
          "name": "altitude",
          "type": "uint256"
        },
        {
          "internalType": "uint256",
          "name": "airSpeed",
          "type": "uint256"
        },
        {
          "internalType": "int256",
          "name": "aileronPosition",
          "type": "int256"
        },
        {
          "internalType": "int256",
          "name": "spoilerPosition",
          "type": "int256"
        },
        {
          "internalType": "int256",
          "name": "elevatorPosition",
          "type": "int256"
        },
        {
          "internalType": "int256",
          "name": "rudderPosition",
          "type": "int256"
        },
        {
          "internalType": "uint256",
          "name": "engineEGT",
          "type": "uint256"
        },
        {
          "internalType": "uint256",
          "name": "engineCompressorSpeed",
          "type": "uint256"
        },
        {
          "internalType": "uint256",
          "name": "engineTurbineSpeed",
          "type": "uint256"
        },
        {
          "internalType": "uint256",
          "name": "fuelFlow",
          "type": "uint256"
        },
        {
          "internalType": "uint256",
          "name": "recordTime",
          "type": "uint256"
        },
        {
          "internalType": "uint256",
          "name": "timestamp",
          "type": "uint256"
        }
      ],
      "stateMutability": "view",
      "type": "function",
      "constant": true
    },
    {
      "inputs": [
        {
          "internalType": "uint256",
          "name": "_flightId",
          "type": "uint256"
        },
        {
          "internalType": "string",
          "name": "_pilotId",
          "type": "string"
        },
        {
          "internalType": "uint256",
          "name": "_passengerCount",
          "type": "uint256"
        },
        {
          "internalType": "uint256",
          "name": "_grossWeight",
          "type": "uint256"
        },
        {
          "internalType": "uint256",
          "name": "_altitude",
          "type": "uint256"
        },
        {
          "internalType": "uint256",
          "name": "_airSpeed",
          "type": "uint256"
        },
        {
          "internalType": "int256",
          "name": "_aileronPosition",
          "type": "int256"
        },
        {
          "internalType": "int256",
          "name": "_spoilerPosition",
          "type": "int256"
        },
        {
          "internalType": "int256",
          "name": "_elevatorPosition",
          "type": "int256"
        },
        {
          "internalType": "int256",
          "name": "_rudderPosition",
          "type": "int256"
        },
        {
          "internalType": "uint256",
          "name": "_engineEGT",
          "type": "uint256"
        },
        {
          "internalType": "uint256",
          "name": "_engineCompressorSpeed",
          "type": "uint256"
        },
        {
          "internalType": "uint256",
          "name": "_engineTurbineSpeed",
          "type": "uint256"
        },
        {
          "internalType": "uint256",
          "name": "_fuelFlow",
          "type": "uint256"
        },
        {
          "internalType": "uint256",
          "name": "_recordTime",
          "type": "uint256"
        }
      ],
      "name": "recordFlightData",
      "outputs": [],
      "stateMutability": "nonpayable",
      "type": "function"
    },
    {
      "inputs": [
        {
          "internalType": "uint256",
          "name": "_flightId",
          "type": "uint256"
        }
      ],
      "name": "getFlightData",
      "outputs": [
        {
          "components": [
            {
              "internalType": "uint256",
              "name": "flightId",
              "type": "uint256"
            },
            {
              "internalType": "string",
              "name": "pilotId",
              "type": "string"
            },
            {
              "internalType": "uint256",
              "name": "passengerCount",
              "type": "uint256"
            },
            {
              "internalType": "uint256",
              "name": "grossWeight",
              "type": "uint256"
            },
            {
              "internalType": "uint256",
              "name": "altitude",
              "type": "uint256"
            },
            {
              "internalType": "uint256",
              "name": "airSpeed",
              "type": "uint256"
            },
            {
              "internalType": "int256",
              "name": "aileronPosition",
              "type": "int256"
            },
            {
              "internalType": "int256",
              "name": "spoilerPosition",
              "type": "int256"
            },
            {
              "internalType": "int256",
              "name": "elevatorPosition",
              "type": "int256"
            },
            {
              "internalType": "int256",
              "name": "rudderPosition",
              "type": "int256"
            },
            {
              "internalType": "uint256",
              "name": "engineEGT",
              "type": "uint256"
            },
            {
              "internalType": "uint256",
              "name": "engineCompressorSpeed",
              "type": "uint256"
            },
            {
              "internalType": "uint256",
              "name": "engineTurbineSpeed",
              "type": "uint256"
            },
            {
              "internalType": "uint256",
              "name": "fuelFlow",
              "type": "uint256"
            },
            {
              "internalType": "uint256",
              "name": "recordTime",
              "type": "uint256"
            },
            {
              "internalType": "uint256",
              "name": "timestamp",
              "type": "uint256"
            }
          ],
          "internalType": "struct FlightDataRecorder.FlightData[]",
          "name": "",
          "type": "tuple[]"
        }
      ],
      "stateMutability": "view",
      "type": "function",
      "constant": true
    }
  ],
  "bytecode": "0x60808060405234610016576108ec908161001b8239f35b5f80fdfe60a0806040526004361015610012575f80fd5b5f3560e01c908163918df6181461050a575080639600989a146104ed578063a1f5284e146101725763b84b7ff914610048575f80fd5b3461016e57604036600319011261016e576024356004355f525f60205260405f2090815481101561016e5761007c916107b0565b50805461008b60018301610815565b9160028101549260038201546004830154600584015460068501546007860154600887015490600988015492600a89015494600b8a015496600c8b015498600d8c01549a600e8d01549c600f01549d60405180608052526102008060805160200152608051016100fa91610733565b9d60805160400152608051606001526080516080015260805160a0015260805160c0015260805160e00152608051610100015260805161012001526080516101400152608051610160015260805161018001526080516101a001526080516101c001526080516101e0015260805180910390f35b5f80fd5b3461016e576101e036600319011261016e5760243567ffffffffffffffff811161016e573660238201121561016e57806004013567ffffffffffffffff81116104b257604051916101cd601f8301601f19166020018461078e565b818352366024838301011161016e57815f9260246020930183860137830101526001545f1981146104d9576001016001556004355f525f60205260405f206040519161021883610771565b6004358352602083015260443560408301526064356060830152608435608083015260a43560a083015260c43560c083015260e43560e083015261010435610100830152610124356101208301526101443561014083015261016435610160830152610184356101808301526101a4356101a08301526101c4356101c0830152426101e08301528054680100000000000000008110156104b2576102c1916001820181556107b0565b9190916104c65780518255602081015180519067ffffffffffffffff82116104b2576102f060018501546107dd565b601f811161046e575b50602090601f83116001146103fc579180600f94926101e0945f926103f1575b50508160011b915f199060031b1c19161760018501555b60408101516002850155606081015160038501556080810151600485015560a0810151600585015560c0810151600685015560e0810151600785015561010081015160088501556101208101516009850155610140810151600a850155610160810151600b850155610180810151600c8501556101a0810151600d8501556101c0810151600e85015501519101557f65cdd259156d44b99ac50cbc761687e9100bab8dc33392c364a6b3b848e3ddac604080516004358152426020820152a1005b015190508680610319565b90600185015f5260205f20915f5b601f1985168110610456575092600f94926001926101e09583601f1981161061043e575b505050811b016001850155610330565b01515f1960f88460031b161c1916905586808061042e565b9192602060018192868501518155019401920161040a565b600185015f5260205f20601f840160051c8101602085106104ab575b601f830160051c820181106104a05750506102f9565b5f815560010161048a565b508061048a565b634e487b7160e01b5f52604160045260245ffd5b634e487b7160e01b5f525f60045260245ffd5b634e487b7160e01b5f52601160045260245ffd5b3461016e575f36600319011261016e576020600154604051908152f35b3461016e5760208060031936011261016e576004355f525f815260405f2080549267ffffffffffffffff84116104b2579160059361054c8282871b018561078e565b80845281840180935f52825f205f915b8383106106675750505050604051928184019082855251809152604081818601961b85010192915f955b8287106105935785850386f35b909192938280600192603f19898203018552875190815181526105c3838301516102008086850152830190610733565b9160408101516040830152606080820151908301526080808201519083015260a0808201519083015260c0808201519083015260e081015160e0830152610100808201519083015261012080820151908301526101408082015190830152610160808201519083015261018080820151908301526101a080820151908301526101c080820151908301526101e0809101519101529601920196019592919092610586565b60108560019260409997995161067c81610771565b8554815261068b858701610815565b838201526002860154604082015260038601546060820152600486015460808201528b86015460a0820152600686015460c0820152600786015460e082015260088601546101008201526009860154610120820152600a860154610140820152600b860154610160820152600c860154610180820152600d8601546101a0820152600e8601546101c0820152600f8601546101e082015281520192019201919095939561055c565b91908251928382525f5b84811061075d575050825f602080949584010152601f8019910116010190565b60208183018101518483018201520161073d565b610200810190811067ffffffffffffffff8211176104b257604052565b90601f8019910116810190811067ffffffffffffffff8211176104b257604052565b80548210156107c9575f5260205f209060041b01905f90565b634e487b7160e01b5f52603260045260245ffd5b90600182811c9216801561080b575b60208310146107f757565b634e487b7160e01b5f52602260045260245ffd5b91607f16916107ec565b9060405191825f825492610828846107dd565b9081845260019485811690815f146108935750600114610853575b50506108519250038361078e565b565b909391505f52602090815f20935f915b81831061087b57505061085193508201015f80610843565b85548884018501529485019487945091830191610863565b91505061085194506020925060ff191682840152151560051b8201015f8061084356fea26469706673582212202c333d5ca404374a568f754886587be0ae53ec84e150f12620db273be7decc2a64736f6c63430008140033",
  "immutableReferences": {},
  "source": "// contracts/FlightDataRecorder.sol\r\npragma solidity ^0.8.0;\r\n\r\ncontract FlightDataRecorder {\r\n    struct FlightData {\r\n        uint256 flightId;\r\n        string pilotId;\r\n        uint256 passengerCount;\r\n        uint256 grossWeight;\r\n        uint256 altitude;\r\n        uint256 airSpeed;\r\n        int256 aileronPosition;\r\n        int256 spoilerPosition;\r\n        int256 elevatorPosition;\r\n        int256 rudderPosition;\r\n        uint256 engineEGT;\r\n        uint256 engineCompressorSpeed;\r\n        uint256 engineTurbineSpeed;\r\n        uint256 fuelFlow;\r\n        uint256 recordTime; // This represents the specific time for this data entry\r\n        uint256 timestamp;  // This represents the block's timestamp when the data was recorded\r\n    }\r\n\r\n    // Mapping flightId to an array of FlightData instances\r\n    mapping(uint256 => FlightData[]) public flightDataRecords;\r\n    uint256 public flightDataCount;\r\n\r\n    event FlightDataRecorded(uint256 flightId, uint256 timestamp);\r\n\r\n    function recordFlightData(\r\n        uint256 _flightId,\r\n        string memory _pilotId,\r\n        uint256 _passengerCount,\r\n        uint256 _grossWeight,\r\n        uint256 _altitude,\r\n        uint256 _airSpeed,\r\n        int256 _aileronPosition,\r\n        int256 _spoilerPosition,\r\n        int256 _elevatorPosition,\r\n        int256 _rudderPosition,\r\n        uint256 _engineEGT,\r\n        uint256 _engineCompressorSpeed,\r\n        uint256 _engineTurbineSpeed,\r\n        uint256 _fuelFlow,\r\n        uint256 _recordTime  // New parameter to pass the specific record time\r\n    ) public {\r\n        flightDataCount++;\r\n        flightDataRecords[_flightId].push(\r\n            FlightData(\r\n                _flightId,\r\n                _pilotId,\r\n                _passengerCount,\r\n                _grossWeight,\r\n                _altitude,\r\n                _airSpeed,\r\n                _aileronPosition,\r\n                _spoilerPosition,\r\n                _elevatorPosition,\r\n                _rudderPosition,\r\n                _engineEGT,\r\n                _engineCompressorSpeed,\r\n                _engineTurbineSpeed,\r\n                _fuelFlow,\r\n                _recordTime,      // Store the specific record time\r\n                block.timestamp   // Store the block's timestamp as usual\r\n            )\r\n        );\r\n        emit FlightDataRecorded(_flightId, block.timestamp);\r\n    }\r\n\r\n    // Function to retrieve all data points for a specific flightId\r\n    function getFlightData(uint256 _flightId) public view returns (FlightData[] memory) {\r\n        return flightDataRecords[_flightId];\r\n    }\r\n}\r\n",
  "sourcePath": "/Users/spaceaids/Desktop/Eth/blockchain/contracts/FlightDataRecorder.sol",
  "compiler": {
    "name": "solc",
    "version": "0.8.20+commit.a1b79de6.Emscripten.clang"
  },
  "schemaVersion": "3.4.16",
  "updatedAt": "2024-09-01T18:42:14.486Z",
  "networkType": "ethereum",
  "devdoc": {
    "kind": "dev",
    "methods": {},
    "version": 1
  },
  "userdoc": {
    "kind": "user",
    "methods": {},
    "version": 1
  }
}